{
    "_format": "hh-sol-artifact-1",
    "contractName": "MusicRegistry",
    "sourceName": "contracts/MusicRegistry.sol",
    "abi": [
        {
            "anonymous": false,
            "inputs": [
                {
                    "indexed": false,
                    "internalType": "uint256",
                    "name": "id",
                    "type": "uint256"
                },
                {
                    "indexed": false,
                    "internalType": "string",
                    "name": "title",
                    "type": "string"
                },
                {
                    "indexed": false,
                    "internalType": "string",
                    "name": "artist",
                    "type": "string"
                },
                {
                    "indexed": false,
                    "internalType": "string",
                    "name": "ipfsHash",
                    "type": "string"
                },
                {
                    "indexed": true,
                    "internalType": "address",
                    "name": "owner",
                    "type": "address"
                },
                {
                    "indexed": false,
                    "internalType": "uint256",
                    "name": "timestamp",
                    "type": "uint256"
                }
            ],
            "name": "MusicRegistered",
            "type": "event"
        },
        {
            "inputs": [
                {
                    "internalType": "string",
                    "name": "",
                    "type": "string"
                }
            ],
            "name": "existingHashes",
            "outputs": [
                {
                    "internalType": "bool",
                    "name": "",
                    "type": "bool"
                }
            ],
            "stateMutability": "view",
            "type": "function"
        },
        {
            "inputs": [
                {
                    "internalType": "uint256",
                    "name": "_id",
                    "type": "uint256"
                }
            ],
            "name": "getMusic",
            "outputs": [
                {
                    "internalType": "uint256",
                    "name": "",
                    "type": "uint256"
                },
                {
                    "internalType": "string",
                    "name": "",
                    "type": "string"
                },
                {
                    "internalType": "string",
                    "name": "",
                    "type": "string"
                },
                {
                    "internalType": "string",
                    "name": "",
                    "type": "string"
                },
                {
                    "internalType": "address",
                    "name": "",
                    "type": "address"
                },
                {
                    "internalType": "uint256",
                    "name": "",
                    "type": "uint256"
                }
            ],
            "stateMutability": "view",
            "type": "function"
        },
        {
            "inputs": [],
            "name": "musicCount",
            "outputs": [
                {
                    "internalType": "uint256",
                    "name": "",
                    "type": "uint256"
                }
            ],
            "stateMutability": "view",
            "type": "function"
        },
        {
            "inputs": [
                {
                    "internalType": "uint256",
                    "name": "",
                    "type": "uint256"
                }
            ],
            "name": "musics",
            "outputs": [
                {
                    "internalType": "uint256",
                    "name": "id",
                    "type": "uint256"
                },
                {
                    "internalType": "string",
                    "name": "title",
                    "type": "string"
                },
                {
                    "internalType": "string",
                    "name": "artist",
                    "type": "string"
                },
                {
                    "internalType": "string",
                    "name": "ipfsHash",
                    "type": "string"
                },
                {
                    "internalType": "address",
                    "name": "owner",
                    "type": "address"
                },
                {
                    "internalType": "uint256",
                    "name": "timestamp",
                    "type": "uint256"
                }
            ],
            "stateMutability": "view",
            "type": "function"
        },
        {
            "inputs": [
                {
                    "internalType": "string",
                    "name": "_title",
                    "type": "string"
                },
                {
                    "internalType": "string",
                    "name": "_artist",
                    "type": "string"
                },
                {
                    "internalType": "string",
                    "name": "_ipfsHash",
                    "type": "string"
                }
            ],
            "name": "registerMusic",
            "outputs": [],
            "stateMutability": "nonpayable",
            "type": "function"
        }
    ],
    "bytecode": "0x608060405260008055348015601357600080fd5b506110e5806100236000396000f3fe608060405234801561001057600080fd5b50600436106100575760003560e01c8063294f98b81461005c5780634770ff8f1461007a578063564a2864146100af578063606589c0146100e4578063685929d114610100575b600080fd5b610064610130565b6040516100719190610809565b60405180910390f35b610094600480360381019061008f9190610864565b610136565b6040516100a696959493929190610962565b60405180910390f35b6100c960048036038101906100c49190610864565b6103b6565b6040516100db96959493929190610962565b60405180910390f35b6100fe60048036038101906100f99190610b0d565b6105aa565b005b61011a60048036038101906101159190610bb4565b6107ba565b6040516101279190610c18565b60405180910390f35b60005481565b600060608060606000806000600160008981526020019081526020016000206040518060c00160405290816000820154815260200160018201805461017a90610c62565b80601f01602080910402602001604051908101604052809291908181526020018280546101a690610c62565b80156101f35780601f106101c8576101008083540402835291602001916101f3565b820191906000526020600020905b8154815290600101906020018083116101d657829003601f168201915b5050505050815260200160028201805461020c90610c62565b80601f016020809104026020016040519081016040528092919081815260200182805461023890610c62565b80156102855780601f1061025a57610100808354040283529160200191610285565b820191906000526020600020905b81548152906001019060200180831161026857829003601f168201915b5050505050815260200160038201805461029e90610c62565b80601f01602080910402602001604051908101604052809291908181526020018280546102ca90610c62565b80156103175780601f106102ec57610100808354040283529160200191610317565b820191906000526020600020905b8154815290600101906020018083116102fa57829003601f168201915b505050505081526020016004820160009054906101000a900473ffffffffffffffffffffffffffffffffffffffff1673ffffffffffffffffffffffffffffffffffffffff1673ffffffffffffffffffffffffffffffffffffffff1681526020016005820154815250509050806000015181602001518260400151836060015184608001518560a001519650965096509650965096505091939550919395565b60016020528060005260406000206000915090508060000154908060010180546103df90610c62565b80601f016020809104026020016040519081016040528092919081815260200182805461040b90610c62565b80156104585780601f1061042d57610100808354040283529160200191610458565b820191906000526020600020905b81548152906001019060200180831161043b57829003601f168201915b50505050509080600201805461046d90610c62565b80601f016020809104026020016040519081016040528092919081815260200182805461049990610c62565b80156104e65780601f106104bb576101008083540402835291602001916104e6565b820191906000526020600020905b8154815290600101906020018083116104c957829003601f168201915b5050505050908060030180546104fb90610c62565b80601f016020809104026020016040519081016040528092919081815260200182805461052790610c62565b80156105745780601f1061054957610100808354040283529160200191610574565b820191906000526020600020905b81548152906001019060200180831161055757829003601f168201915b5050505050908060040160009054906101000a900473ffffffffffffffffffffffffffffffffffffffff16908060050154905086565b6002816040516105ba9190610ccf565b908152602001604051809103902060009054906101000a900460ff1615610616576040517f08c379a000000000000000000000000000000000000000000000000000000000815260040161060d90610d32565b60405180910390fd5b60008081548092919061062890610d81565b91905055506040518060c0016040528060005481526020018481526020018381526020018281526020013373ffffffffffffffffffffffffffffffffffffffff1681526020014281525060016000805481526020019081526020016000206000820151816000015560208201518160010190816106a59190610f75565b5060408201518160020190816106bb9190610f75565b5060608201518160030190816106d19190610f75565b5060808201518160040160006101000a81548173ffffffffffffffffffffffffffffffffffffffff021916908373ffffffffffffffffffffffffffffffffffffffff16021790555060a0820151816005015590505060016002826040516107389190610ccf565b908152602001604051809103902060006101000a81548160ff0219169083151502179055503373ffffffffffffffffffffffffffffffffffffffff167f9489a872f43ecb6155f2ff7c7158a13213e9c7c6b403579b2565f16475e68668600054858585426040516107ad959493929190611047565b60405180910390a2505050565b6002818051602081018201805184825260208301602085012081835280955050505050506000915054906101000a900460ff1681565b6000819050919050565b610803816107f0565b82525050565b600060208201905061081e60008301846107fa565b92915050565b6000604051905090565b600080fd5b600080fd5b610841816107f0565b811461084c57600080fd5b50565b60008135905061085e81610838565b92915050565b60006020828403121561087a5761087961082e565b5b60006108888482850161084f565b91505092915050565b600081519050919050565b600082825260208201905092915050565b60005b838110156108cb5780820151818401526020810190506108b0565b60008484015250505050565b6000601f19601f8301169050919050565b60006108f382610891565b6108fd818561089c565b935061090d8185602086016108ad565b610916816108d7565b840191505092915050565b600073ffffffffffffffffffffffffffffffffffffffff82169050919050565b600061094c82610921565b9050919050565b61095c81610941565b82525050565b600060c08201905061097760008301896107fa565b818103602083015261098981886108e8565b9050818103604083015261099d81876108e8565b905081810360608301526109b181866108e8565b90506109c06080830185610953565b6109cd60a08301846107fa565b979650505050505050565b600080fd5b600080fd5b7f4e487b7100000000000000000000000000000000000000000000000000000000600052604160045260246000fd5b610a1a826108d7565b810181811067ffffffffffffffff82111715610a3957610a386109e2565b5b80604052505050565b6000610a4c610824565b9050610a588282610a11565b919050565b600067ffffffffffffffff821115610a7857610a776109e2565b5b610a81826108d7565b9050602081019050919050565b82818337600083830152505050565b6000610ab0610aab84610a5d565b610a42565b905082815260208101848484011115610acc57610acb6109dd565b5b610ad7848285610a8e565b509392505050565b600082601f830112610af457610af36109d8565b5b8135610b04848260208601610a9d565b91505092915050565b600080600060608486031215610b2657610b2561082e565b5b600084013567ffffffffffffffff811115610b4457610b43610833565b5b610b5086828701610adf565b935050602084013567ffffffffffffffff811115610b7157610b70610833565b5b610b7d86828701610adf565b925050604084013567ffffffffffffffff811115610b9e57610b9d610833565b5b610baa86828701610adf565b9150509250925092565b600060208284031215610bca57610bc961082e565b5b600082013567ffffffffffffffff811115610be857610be7610833565b5b610bf484828501610adf565b91505092915050565b60008115159050919050565b610c1281610bfd565b82525050565b6000602082019050610c2d6000830184610c09565b92915050565b7f4e487b7100000000000000000000000000000000000000000000000000000000600052602260045260246000fd5b60006002820490506001821680610c7a57607f821691505b602082108103610c8d57610c8c610c33565b5b50919050565b600081905092915050565b6000610ca982610891565b610cb38185610c93565b9350610cc38185602086016108ad565b80840191505092915050565b6000610cdb8284610c9e565b915081905092915050565b7f4d7573696320616c726561647920726567697374657265642e00000000000000600082015250565b6000610d1c60198361089c565b9150610d2782610ce6565b602082019050919050565b60006020820190508181036000830152610d4b81610d0f565b9050919050565b7f4e487b7100000000000000000000000000000000000000000000000000000000600052601160045260246000fd5b6000610d8c826107f0565b91507fffffffffffffffffffffffffffffffffffffffffffffffffffffffffffffffff8203610dbe57610dbd610d52565b5b600182019050919050565b60008190508160005260206000209050919050565b60006020601f8301049050919050565b600082821b905092915050565b600060088302610e2b7fffffffffffffffffffffffffffffffffffffffffffffffffffffffffffffffff82610dee565b610e358683610dee565b95508019841693508086168417925050509392505050565b6000819050919050565b6000610e72610e6d610e68846107f0565b610e4d565b6107f0565b9050919050565b6000819050919050565b610e8c83610e57565b610ea0610e9882610e79565b848454610dfb565b825550505050565b600090565b610eb5610ea8565b610ec0818484610e83565b505050565b5b81811015610ee457610ed9600082610ead565b600181019050610ec6565b5050565b601f821115610f2957610efa81610dc9565b610f0384610dde565b81016020851015610f12578190505b610f26610f1e85610dde565b830182610ec5565b50505b505050565b600082821c905092915050565b6000610f4c60001984600802610f2e565b1980831691505092915050565b6000610f658383610f3b565b9150826002028217905092915050565b610f7e82610891565b67ffffffffffffffff811115610f9757610f966109e2565b5b610fa18254610c62565b610fac828285610ee8565b600060209050601f831160018114610fdf5760008415610fcd578287015190505b610fd78582610f59565b86555061103f565b601f198416610fed86610dc9565b60005b8281101561101557848901518255600182019150602085019450602081019050610ff0565b86831015611032578489015161102e601f891682610f3b565b8355505b6001600288020188555050505b505050505050565b600060a08201905061105c60008301886107fa565b818103602083015261106e81876108e8565b9050818103604083015261108281866108e8565b9050818103606083015261109681856108e8565b90506110a560808301846107fa565b969550505050505056fea2646970667358221220a2213c24875771898ab7eb056198133c9c2c623315d930f502b87c4dd1cabbe364736f6c634300081c0033",
    "linkReferences": {},
    "deployedLinkReferences": {}
}